:101B93005374617274696E6720436C7573746572F4
:101BA300203D202531750A0D005374617274696EEE
:101BB3006720536563746F72203D202531750A0DCC
:011BC3000021
:080003008F258E248D238C2231
:10000B00752B017BFF7A1B79938F498E488D478C1B
:10001B00461207D3AF25AE24AD23AC221219CA8FDB
:10002B002F8E2E8D2D8C2C7BFF7A1B79AC8F498ECE
:10003B00488D478C461207D3E4F533F532F531F58D
:10004B0030F526F527E52F2533FFE52E3532FEE576
:10005B002D3531FDE52C3530FC75470275480075A3
:10006B004901754A00754B00121A9AE5332401F5C4
:10007B0033E43532F532E43531F531E43530F530F2
:10008B00C2A6E4F528F529E52F2533FFE52E3532F9
:10009B00FEE52D3531FDE52C3530FC7547027548F5
:1000AB0000754901754A02754B00121A9AE5332403
:1000BB0001F533E43532F532E43531F531E43530E1
:1000CB00F530D2A6E4F51CC2A7D2A474FFFFFEFD47
:1000DB007C0FAB25AA24A923A822C3120FDC700323
:1000EB000203A320A3030203A3E51CB40619E47FB8
:1000FB0040FEFDFCAB33AA32A931A830C3120FDC92
:10010B004005751C07801CE51CB40217E47F40FEFC
:10011B00FDFCAB33AA32A931A830C3120FDC40036C
:10012B00751C03E51CB4080050A190013CF828286D
:10013B00730201540201600201E902022F020282E2
:10014B0002028E02030F0203552092030200D675A2
:10015B001C010200D620A209E4F52BD2A7C2A58070
:10016B000A20A107752B01C2A7D2A5209217D3E5B0
:10017B002994FFE52894014006751C020200D6E481
:10018B00F51C0200D6E52B6401702EA29333FF12EF
:10019B001CDB74002527F58274003526F583E0FF00
:1001AB007B007A00792A121B60A293E433FF121CA6
:1001BB00C40527E52770020526D3E52794FFE5261E
:1001CB00940150030200D6751C05D3E52994FFE575
:1001DB0028940150030200D6751C020200D6E4F5E8
:1001EB0028F529E52F2533FFE52E3532FEE52D3594
:1001FB0031FDE52C3530FC7547027548007549011A
:10020B00754A02754B00121A9AE5332401F533E453
:10021B003532F532E43531F531E43530F530E4F58E
:10022B001C0200D6AF25AE24AD23AC227538027567
:10023B0039001215A98F258E248D238C221219CAF1
:10024B008F2F8E2E8D2D8C2CE4F533F532F531F569
:10025B0030F51C74FFFFFEFD7C0FAB25AA24A923F0
:10026B00A822C3120FDC60030200D6F51CA2A43334
:10027B00FF121CCE0200D62092030200D6751C057D
:10028B000200D620A205E4F52B800620A103752BD6
:10029B0001209217D3E52794FFE5269401400675BC
:1002AB001C060200D6751C040200D6E52B640170F7
:1002BB002EA29333FF121CDB74002529F5827402E6
:1002CB003528F583E0FF7B007A00792A121B60A2A8
:1002DB0093E433FF121CC40529E52970020528D3CA
:1002EB00E52994FFE528940150030200D6751C0103
:1002FB00D3E52794FFE526940150030200D6751C25
:10030B00060200D6E4F526F527E52F2533FFE52E6B
:10031B003532FEE52D3531FDE52C3530FC754702C8
:10032B00754800754901754A00754B00121A9AE51C
:10033B00332401F533E43532F532E43531F531E46C
:10034B003530F530751C040200D6AF25AE24AD2335
:10035B00AC227538007539001215A98F258E248DA6
:10036B00238C221219CA8F2F8E2E8D2D8C2CE4F5F7
:10037B0033F532F531F530751C0474FFFFFEFD7C4F
:10038B000FAB25AA24A923A822C3120FDC600302FA
:10039B0000D6751C040200D6A2A7E433FF121CDFA3
:1003AB00A2A5E433FF121CDFA2A4E433FF021CCE90
:101680004C6F636174696E6720426F6F742053659D
:1016900063746F722E2E2E0A0D0052656C61746990
:1016A000766520536563746F7273203D20256C64EA
:1016B0000A0D004469736B204572726F72210A0D26
:1016C0000046415431362044657465637465642E68
:1016D0002E2E0A0D00464154333220446574656352
:1016E0007465642E2E2E0A0D00436C75737465723A
:1016F000233A2025396C752C2020536563746F7252
:10170000233A2025396C752C20205365634F66667B
:101710007365743A20256C750A00507265737320E6
:10172000537061636520746F20436F6E74696E75CA
:1017300065206F72205820746F20657869740A00E4
:091C6200AB40AA41A942E4FFFED7
:0B1C6B005306018F828E83120E09FFCA
:011C7600224B
:0A1B2C008E438F448B458A4689479B
:101B3600534301E4FDFCE92FF9EA3543FA9000012D
:101B4600120E09FD7D00FCAA46A9478F82854383B4
:091B5600120E09FDE4AE04AF0516
:011B5F002263
:0A1959008E438F448B458A46894770
:10196300E4F54BF54AF549F548534301F54CAB45CE
:10197300E5472544F9E5463543FAC37403954CFF1F
:10198300E49400FEE92FF9EA3EFA120DF0FBAF4BA7
:10199300AE4AAD49AC4878081210008F4B8E4A8D81
:1019A300498C48AF03E4E54B4FF54BE54AF54AE56F
:1019B30049F549E548F548054CE54CB404B0AF4B4F
:0619C300AE4AAD49AC483C
:0119C90022FB
:100ACD00AA06A9077540018A4189427BFF7A1679EA
:100ADD00801207D375470275480085404985414A04
:100AED0085424B7F007E007D007C00121A9A121CFD
:100AFD00628F3FE53F64EB6047E53F64E96041ABE2
:100B0D0040AA41A9427FC67E011219598F318E30FC
:100B1D008D2F8C2E75470275480085404985414AB9
:100B2D0085424B121A9A7BFF7A16799A853149853F
:100B3D003048852F47852E461207D3121C628F3FF2
:100B4D00E53F64EB6012E53F64E9600C7BFF7A16CC
:100B5D0079B31207D37FF022AB40AA41A9427F0B94
:100B6D007E00121B2C7800EEF608EFF6E47800F606
:100B7D00AD07AC06ED64014C600C780006ECC313B8
:100B8D00FCED13FD80EEAB40AA41A9427F0D7E0026
:100B9D00121C6B7800A607AB40AA41A9427F0E7EBE
:100BAD0000121B2C8E3A8F3BAB40AA41A9427F10FD
:100BBD007E00121C6B8F3EAB40AA41A9427F117E75
:100BCD0000121B2C8E3C8F3DAB40AA41A9427F13D6
:100BDD007E00121B2CE48F258E24F523F522FFFEBB
:100BED00FDFCAB25AA24A923A822C3120FDC701487
:100BFD00AB40AA41A9427F20FE1219598F258E24A0
:100C0D008D238C22AB40AA41A9427F167E00121B78
:100C1D002CE48F358E34F533F532FFFEFDFCAB350C
:100C2D00AA34A933A832C3120FDC7029AB40AA41F4
:100C3D00A9427F24FE1219598F358E348D338C3293
:100C4D00AB40AA41A9427F2C7E001219598F398ED3
:100C5D00388D378C36E53DAE3C7805C333CE33CE7B
:100C6D00D8F9FF7800E6FC08E6FD24FFFBEC34FF25
:100C7D00CB2FFFEB3EFE120E6AE4FCFD7800121046
:100C8D002CAF3EE4FCFDFEAB35AA34A933A83212DD
:100C9D000EBFA804A905AA06AB07E4FCFDEB253B96
:100CAD00FFEA353AFEED39FDEC38FC780012101FE5
:100CBD00EF2BFBEE3AFAED39F9EC38F8C3E5259B4D
:100CCD00F529E5249AF528E52399F527E52298F5E8
:100CDD00267800E6FFE4FCFDFEF8F9FAAB07AF2934
:100CED00AE28AD27AC26120F4A8F2D8E2C8D2B8C56
:100CFD002AE4E53B2531FFE53A3530FEE4352FFD9D
:100D0D00E4352EFC780012102CAF3EE4FCFDFEAB5A
:100D1D0035AA34A933A832120EBF780012101FEF76
:100D2D002BFFEE3AFEED39FDEC38FC780012101F6A
:100D3D00EF2BFFEE3AFEED39FDEC38FC780012108A
:100D4D002CE47FF57EFFFDFCAB2DAA2CA92BA82A48
:100D5D00C3120FDC503A78007602780076017BFFE3
:100D6D007A1679C11207D3AF3EE4FCFDFEAB35AA6E
:100D7D0034A933A832120EBF780012101FEF2BFFCB
:100D8D00EE3AFEED39FDEC38FC780012102C805057
:100D9D0078007604780076027BFF7A1679D51207F3
:100DAD00D3E53924FEFFE53834FFFEE53734FFFD8A
:100DBD00E53634FFFCC004A905AA06AB077800E6AA
:100DCD00FFE4FCFDFED000120EBF780012101FEFE5
:100DDD002BFFEE3AFEED39FDEC38FC780012102CAD
:020DED007F0085
:010DEF0022E1
:0819CA008F378E368D358C3409
:1019D200E4FFFEFDFCAB37AA36A935A834C3120FCB
:1019E200DC700F78001210138F3B8E3A8D398C38D1
:1019F200803EE53724FEFFE53634FFFEE53534FF51
:101A0200FDE53434FFFCC004A905AA06AB07780043
:101A1200E6FFE4FCFDFED000120EBF780012101F9C
:101A2200EF2BF53BEE3AF53AED39F539EC38F5386E
:081A3200AF3BAE3AAD39AC3810
:011A3A002289
:0815A9008F378E368D358C342E
:1015B100754001853841853942C37900E778009645
:1015C100F9F8120FED780012101FEF2BFFEE3AFE23
:1015D100ED39FDEC38FC7800E6F54708E6F548857D
:1015E100404985414A85424B121A9AAF37AE36AD12
:1015F10035AC347800E6F9F8121000C004A905AA48
:1016010006AB077800E624FFFF18E634FFFEE4D0BE
:1016110000EB5FFFEA5EFEE48E3E8F3F7800E6B4AA
:101621000419AB40AA41A942121959EFF53DEEF553
:101631003CEDF53BEC540FF53A803B7800E6B40203
:1016410035AB40AA41A942AF3FAE3E121B2CE48FFD
:101651003D8E3CF53BF53A7FFF7EFFFDFCAB3DAA9D
:101661003CA93BA83AC3120FDC700B74FFF53DF5A2
:0E1671003CF53B753A0FAF3DAE3CAD3BAC3A9D
:01167F002248
:08126F008F0B8E0A8D098C081B
:10127700751901850C1A850D1BE4F516F517F5157B
:10128700F514F513F512E4FFFEFDFCAB15AA14A93E
:1012970013A812C3120FDC703EE50B24FEFFE50A0C
:1012A70034FFFEE50934FFFDE50834FFFCC004A95F
:1012B70005AA06AB077800E6FFE4FCFDFED00012A6
:1012C7000EBF780012101FEF2BF511EE3AF510ED57
:1012D70039F50FEC38F50E7BFF7A1679E9850B495E
:1012E700850A48850947850846E5112515F54DE521
:1012F700103514F54CE50F3513F54BE50E3512F5A2
:101307004A85155185145085134F85124E1207D300
:10131700E5112515FFE5103514FEE50F3513FDE53D
:101327000E3512FC7800E6F54708E6F548851949B9
:10133700851A4A851B4B121A9AAB19AA1AA91B7D43
:10134700007C02121A3BE5152401F515E43514F566
:1013570014E43513F513E43512F5127800E6FFE4CB
:10136700FCFDFEAB15AA14A913A812C3120FDC705B
:1013770022AF0BAE0AAD09AC08851A38851B3912A6
:1013870015A98F0B8E0A8D098C08E4F515F514F550
:1013970013F5127BFF7A17791A1207D3121C8B8F5A
:1013A70018E51864206005E518B458F0E5186420BE
:1013B700700302128D7F0D121BF57F0A121BF57F3A
:0113C7000025
:0113C8002202
:031CE3008F8022CD
:051CBA00EFF45290223E
:051CBF00EFF452A02229
:051CC400EFF452B02214
:041CD300EF4290222A
:041CD700EF42A02216
:041CDB00EF42B02202
:081A9A008F468E458D448C43FC
:101AA200E4F54C121CC9AB07C294AF46AE45AD4437
:101AB200AC43A8031210008F518E508D4F8C4E7F75
:101AC200111214D38F4CE54C700FAB49AA4AA94BA3
:101AD200AF48AE471213C98F4CD294E54C600375E0
:041AE2004CF0AF4CC9
:011AE60022DD
:10106E005344204361726420496E697469616C69EE
:10107E007A6174696F6E202E2E2E200A0D00434D5C
:10108E0044302073656E74202E2E2E200052657310
:10109E00706F6E7365203D2025322E3262580A0D18
:1010AE0000434D44382073656E74202E2E2E200082
:1010BE00526573706F6E7365203D200025322E329F
:1010CE006258200056657273696F6E20312053444A
:1010DE0020436172642064657465637465642E0ACE
:1010EE000D005374616E64617264204361706163BC
:1010FE0069747920436172642064657465637465F4
:10110E00642E0A0D0056657273696F6E203220537D
:10111E004420436172642064657465637465642E53
:10112E000A0D00434D4435382073656E74202E2E03
:10113E002E200041434D4434312073656E74202EB1
:10114E002E2E2000486967682043617061636974C0
:10115E007920436172642044657465637465640A22
:10116E000D005374616E646172642043617061633B
:10117E006974792043617264204465746563746593
:10118E00640A0D00434D4431362073656E74202E73
:10119E002E2E2000526573706F6E7365203D2025D4
:1011AE00322E326258200A0D00426C6F636B207330
:1011BE00697A652073657420746F20353132206230
:1011CE00797465730A0D0054696D656F75742045E9
:1011DE0072726F720053442054696D656F7574207E
:1011EE004572726F7200496C6C6567616C20436F5B
:1011FE006D6D616E640A0D00526573706F6E73656E
:10120E00204572726F72004461746120546F6B6579
:10121E006E204572726F7200496E636F6D706174ED
:10122E0069626C6520566F6C74616765004361720C
:10123E006420697320496E6163746976650053504A
:10124E0049206F722054696D656F757420457272F6
:10125E006F7200556E6B6E6F776E204572726F7285
:01126E00007F
:0B14C800E4F551F550F54FF54E7F3A6A
:0214D3008F4D3B
:1014D500E4F553E54DC3944040030215A3E54D449F
:1014E50040F5527B007A007954FF121B608F55E559
:1014F500554253701EAF51AE50AD4FAC4E781812D9
:101505000FED8F527B007A007954121B608F55E5E1
:10151500554253E553701EAF51AE50AD4FAC4E78AA
:1015250010120FED8F527B007A007954121B608FD9
:1015350055E5554253E553701EAF51AE50AD4FAC16
:101545004E7808120FED8F527B007A007954121BEA
:10155500608F55E5554253E5537016E551FFE48F0D
:1015650052FB7A007954AF52121B608F55E55542F4
:1015750053E553702CE54D7005755295800DE54D7D
:10158500B4080575528780037552017B007A00798E
:1015950054AF52121B608F55E55542538003755366
:0315A50082AF53BF
:0115A8002220
:07174000FB7A0079257F010F
:081747008F348B358A36893797
:10174F00E4F5397B007A00793B7FFF121B608F3AFB
:10175F000538E53B30E708E5386004E53A60E4E535
:10176F003A60057539878052E53870057539818083
:10177F0049AB35AA36A937E53B120E36E53B600477
:10178F0064017033E534D39401402F753801E53887
:10179F00C3953450257B007A00793B7FFF121B6085
:1017AF008F3AAB35AA36A937853882758300E53B6A
:1017BF00120E48053880D77539837B007A00793B44
:0917CF007FFF121B608F3AAF3955
:0117D80022EE
:0A13C9008E4D8F4E8B4F8A508951D4
:1013D300E4F555F556F5537B007A0079547FFF12F7
:1013E3001B608F520556E55670020555E55430E7EC
:1013F3000AE55645556004E55260DCE55260067522
:1014030053870214B8E55645557006755381021487
:10141300B8E55460030214B5F555F5567B007A0020
:1014230079547FFF121B608F520556E556700205F3
:1014330055E554B4FF0AE55645556004E55260DCB2
:10144300E5526005755387806CE556455570057503
:1014530053818061E55464FE7053F555F556C3E539
:1014630056954EE555954D50287B007A0079547F6B
:10147300FF121B608F52AB4FAA50A951855682852C
:101483005583E554120E480556E55670D10555802F
:10149300CD7B007A0079547FFF121B608F527B0053
:1014A3007A0079547FFF121B608F52800875538432
:1014B30080037553837B007A0079547FFF121B608E
:0414C3008F52AF5342
:0114C7002202
:1003BB00E4F523781E76FF7F10121CD37BFF7A1097
:1003CB00796E1207D3E4F5227B007A00792D7FFF3B
:1003DB00121B608F240522E522C3940A40EA7F801A
:1003EB00121CBF7BFF7A10798C1207D37F10121C63
:1003FB00BAE4F551F550F54FF54EFF1214D38F2497
:10040B00E524701D1217408F247F10121CD37F80A0
:10041B00121CD77BFF7A10799B8525461207D38058
:10042B000F7F10121CD37F80121CD77F10121CBFA2
:10043B00E5246002F523E52360030205137F801298
:10044B001CBF7BFF7A1079AF1207D37F10121CBA37
:10045B00E47551AA755001F54FF54E7F081214D370
:10046B008F247F20121CBFE524705AFB7A0079255C
:10047B007F051217478F247F10121CD37F80121C0D
:10048B00D77BFF7A1079BE1207D3E4F5227BFF7A74
:10049B001079CA74252522F8E6F5461207D30522F2
:1004AB00E522C3940540E67F0D121BF57F0A121B54
:1004BB00F5E52964AA6003752483E52864016014BB
:1004CB00752485800F7F10121CD37F80121CD77F61
:1004DB0010121CBFE5246023B4821BE4F523781EA5
:1004EB0076097BFF7A1079D21207D37BFF7A1079CA
:1004FB00F01207D38012852423800D781E76027BA1
:10050B00FF7A1179131207D3E523600302059E7F4F
:10051B0080121CBF7BFF7A1179311207D37F101227
:10052B001CBA1214C88F24E5247053FB7A0079256A
:10053B007F051217478F247F10121CD37F80121C4C
:10054B00D77BFF7A1079BE1207D3E4F5227BFF7AB3
:10055B001079CA74252522F8E6F5461207D3052231
:10056B00E522C3940540E67F0D121BF57F0A121B93
:10057B00F5E52754FC64FC6014752485800F7F100F
:10058B00121CD37F80121CD77F10121CBFE5246076
:10059B0002F523E5236003020659781EE6B4020C2C
:1005AB00E4F531F530F52F752E408009E4F531F582
:1005BB0030F52FF52EE4F532F5337BFF7A117941C7
:1005CB001207D37F10121CBAE4F551F550F54FF515
:1005DB004E7F371214D38F24E52470051217408FEA
:1005EB0024E52564016004E52570138531518530C0
:1005FB0050852F4F852E4E7F291214D38F24E5243F
:10060B0070031217407F10121CD30533E5337002B1
:10061B00053245327003752481E52530E004E5246D
:10062B0060A1E52470137F20121CD77BFF7A107911
:10063B009B8525461207D3800F7F10121CD37F801A
:10064B00121CD77F10121CBFE5246002F523E52393
:10065B006003020766781EE6640260030207667F8A
:10066B0080121CBF7BFF7A1179311207D37F1012D6
:10067B001CBA1214C88F24E524600302074CFB7AC2
:10068B000079257F051217478F247F10121CD37F0B
:10069B0080121CD77BFF7A1079BE1207D3E4F522A8
:1006AB007BFF7A1079CA74252522F8E6F5461207E6
:1006BB00D30522E522C3940540E67F0D121BF57F7F
:1006CB000A121BF5E52620E70675248602075BE573
:1006DB002654C0FFBFC00FE4781EF67BFF7A11795A
:1006EB00521207D3806A781E76097BFF7A117970D4
:1006FB001207D37F80121CBF7BFF7A1179921207EE
:10070B00D37F10121CBAE4F551755002F54FF54E1C
:10071B007F101214D38F24E52470351217408F24C9
:10072B007F10121CD37F80121CD77BFF7A1179A20A
:10073B008525461207D37BFF7A1179B71207D38031
:10074B000F7F10121CD37F80121CD77F10121CBF7F
:10075B00E5246007F523AF23121865E5236004FF3A
:05076B00121865AF2328
:010770002266
:051CC900781EE6FF2279
:101865008F34E534B480097BFF7A1179D50207D32B
:10187500E534B481097BFF7A1179E30207D3E534B6
:10188500B482097BFF7A1179F40207D3E534B48376
:10189500097BFF7A1279060207D3E534B484097B04
:1018A500FF7A1279150207D3E534B485097BFF7AEF
:1018B5001279260207D3E534B486097BFF7A1279BB
:1018C5003B0207D3E534B487097BFF7A12794C02D2
:0C18D50007D37BFF7A1279611207D3223F
:1017D900E4F522AB07AA06A905A804FF7E407D19F6
:1017E9007C01120F4AEFD39402500575C3708069CA
:1017F900EFD39402400BEFD39404500575C3718065
:1018090058EFD39404400BEFD39408500575C37275
:101819008047EFD39408400BEFD39410500575C35C
:10182900738036EFD39410400BEFD3942050057595
:10183900C3F08025EFD39420400BEFD3944050059B
:1018490075C3F18014EFD39440400BEFD3948050CB
:0B1859000575C3F2800375220FAF225B
:011864002261
:101B6000E4FE8FC5AFC40EEF54F07003EE70F5EED7
:101B70006017EF54707009E5C5120E36E4FE801050
:101B800074FF120E36E4FE800774FF120E367E805C
:021B9000AF069E
:011B92002230
:101AE7002570200025322E3262582000416464722E
:101AF7002E2020203020203120203220203320208B
:101B07003420203520203620203720203820203947
:101B1700202041202042202043202044202045200F
:051B270020460A0D003C
:1018E1008B5F8A6089618B468A4789487BFF7A1AB8
:1018F10079E71207D3E4F562AB5FAA60A96185625B
:1019010082758300120E09F5637BFF7A1A79EBF574
:10191100461207D30562E562C3941040DBE4F56229
:10192100AB5FAA60A961856282758300120E09F519
:1019310063C394204007E563D3947F400375632E0E
:10194100AF63121C420562E562C3941040D27F0D61
:08195100121C427F0A021C4235
:0A1A3B008B578A5889598C5A8D5B2D
:101A45008B5C8A5D895EAE02AF0153070F7E00C3D2
:101A5500E99FF9EA9E8B5CF55D895E7BFF7A1A79D1
:101A6500F31207D3AB5CAA5DA95E1218E1741025C9
:101A75005EF55EE4355DF55DAB57E559255BF9E54A
:101A850058355AFAEB8A838982C3E55E9582E55D0E
:041A9500958340D025
:011A9900222A
:101C770053873F759850E4F59B759AE2759B1ED282
:041C870099C2AC2230
:101C4200E4FDFC0DBD00010C209904ED4C70F4ED97
:0F1C52004C60088F99AE07C29980027EF1AF06F1
:011C61002260
:071CB2003098FDAF99C298C4
:011CB9002208
:051CCE00EFF452A0221A
:041CDF00EF42A0220E
:101C1C005389F0438901C2A9758CF4758A3DC28D34
:101C2C00D28C308DFDC28CEF1F70011ED3EF94004F
:061C3C00EE940050E322CB
:101BC400758F01121C777F807E1A7D067C001217A8
:101BD400D91203BB7F407E787D7D7C011217D97EAC
:101BE400007F00120ACD7FC07E387D027C00020097
:011BF40003ED
:03000000021C9C43
:0C1C9C00787FE4F6D8FD758163021BC45C
:100DF000BB010689828A83E0225002E722BBFE0201
:090E0000E32289828A83E4932233
:100E0900BB010CE58229F582E5833AF583E022509E
:100E190006E92582F8E622BBFE06E92582F8E222E8
:0D0E2900E58229F582E5833AF583E4932202
:100E3600BB010689828A83F0225002F722BBFE019B
:020E4600F32295
:100E4800F8BB010DE58229F582E5833AF583E8F0E0
:100E5800225006E92582C8F622BBFE05E92582C88C
:020E6800F22274
:100E6A00BC000BBE0029EF8DF084FFADF022E4CC6C
:100E7A00F875F008EF2FFFEE33FEEC33FCEE9DEC35
:100E8A00984005FCEE9DFE0FD5F0E9E4CEFD22ED7B
:100E9A00F8F5F0EE8420D21CFEADF075F008EF2FC5
:100EAA00FFED33FD4007985006D5F0F222C398FDB6
:050EBA000FD5F0EA2253
:100EBF00E88FF0A4CC8BF0A42CFCE98EF0A42CFCD2
:100ECF008AF0EDA42CFCEA8EF0A4CDA8F08BF0A450
:100EDF002DCC3825F0FDE98FF0A42CCD35F0FCEBAF
:100EEF008EF0A4FEA9F0EB8FF0A4CFC5F02ECD3974
:0F0EFF00FEE43CFCEAA42DCE35F0FDE43CFC22E1
:100F0E0075F008758200EF2FFFEE33FECD33CDCC9A
:100F1E0033CCC58233C5829BED9AEC99E58298401D
:100F2E000CF582EE9BFEED9AFDEC99FC0FD5F0D6FA
:100F3E00E4CEFBE4CDFAE4CCF9A88222B800C1B924
:100F4E000059BA002DEC8BF084CFCECDFCE5F0CB62
:100F5E00F97818EF2FFFEE33FEED33FDEC33FCEB9B
:100F6E0033FB10D703994004EB99FB0FD8E5E4F956
:100F7E00FA227818EF2FFFEE33FEED33FDEC33FC43
:100F8E00C933C910D7059BE99A4007EC9BFCE99A37
:100F9E00F90FD8E0E4C9FAE4CCFB2275F010EF2F7C
:100FAE00FFEE33FEED33FDCC33CCC833C810D7077C
:100FBE009BEC9AE899400AED9BFDEC9AFCE899F8B7
:0E0FCE000FD5F0DAE4CDFBE4CCFAE4C8F9224A
:100FDC00EB9FF5F0EA9E42F0E99D42F0E89C45F06B
:010FEC0022E2
:100FED00E8600FECC313FCED13FDEE13FEEF13FFE2
:030FFD00D8F12206
:10100000E8600FEFC333FFEE33FEED33FDEC33FC4E
:03101000D8F122F2
:0C101300E6FC08E6FD08E6FE08E6FF2209
:0D101F00E6FB08E6F908E6FA08E6CBF82241
:0C102C00ECF608EDF608EEF608EFF622F0
:101BF500EFB40A07740D121C00740A309811A899E5
:101C0500B8130CC2983098FDA899C298B811F6304F
:071C150099FDC299F5992227
:10077100E5522446F8E605522278433007027846CE
:10078100E475F001121038020DF02000EB7F2ED23B
:10079100008018EF540F2490D43440D4FF30040B60
:1007A100EF24BFB41A0050032461FFE55360021522
:1007B100530556E5567002055530070D7843E4752B
:1007C100F001121038EF020E36021BF57403D20746
:1007D1008003E4C207F5528B438A448945E4F5530B
:1007E100F555F556E55360077F201207AC80F57586
:1007F10054FFC201C200C202C203C205C206C2083E
:1008010012077AFF700D3007057F001207BDAF5642
:10081100AE5522B4255FC2D5C20412077AFF24D097
:10082100B40A00501A75F00A785330D50508B6FF9E
:100831000106C6A426F620D5047002D20380D9246D
:10084100CFB41A00EF5004C2E5D2040209BDD201AF
:1008510080C6D20080C0D20280BCD2D580BAD20577
:1008610080B47F201207AC2002077401B553004009
:10087100F1120771FF1207AC0207E5D208D2068018
:1008810095120771FB120771FA120771F94A4B7041
:1008910006798E7A0A7BFF20022EE553602A7E00BC
:1008A1008E82758300120E0960060EEE655470F09B
:1008B100C2D5EBC0E0EAC0E0E9C0E0EE120A04D024
:1008C100E0F9D0E0FAD0E0FB120DF0FF60AAEBC036
:1008D100E0EAC0E0E9C0E01207ACD0E02401F9D0C1
:1008E100E03400FAD0E0FBE5540460DCD554D98053
:1008F100877BFF7A0A7900D202809C791080027985
:1009010008C206C2088008D2D5790A8004790AC2D1
:10091100D5E554047002F554E4FAFDFEFF120771A7
:10092100FC7B08200113120771FD7B1030000A12B5
:100931000771FE120771FF7B20EC3382D592D550EF
:1009410013C3E43000069FFFE49EFEE42001039DF3
:10095100FDE49CFCE4CBF8C201EC700CCFCECDCC15
:10096100E824F8F870F38017C3EF33FFEE33FEEDA0
:1009710033FDEC33FCEB33FB994002FB0FD8E9EB81
:10098100300105F8D0E0C448B201C0E00AEC4D4E98
:100991004F78207B0070C2EAB5540040BCC0E01221
:1009A1000A06D0F0D0E0200104C4C0E0C4B201C006
:1009B100F0120795D0F0D5F0EB0207E512104808C8
:1009C100825308FC5808534C084F4209004F09084C
:1009D10044090849086843090E5508F24608F245DA
:1009E10008F2470AAE5008572D085B2E087E2B08E7
:1009F1005F23087C200A9C2A081748000008763FDC
:100A01003F3F00790AA2D5200314300509B910022D
:100A11000404B9080104A2D52006025001042002F1
:050A2100689202B553CC
:100A2600005034C0E07F203003197F30A2027206E6
:100A36007205500F120A5DC202C206C205C2087FC5
:100A460030800F300503E9C0E01207AC300503D053
:100A5600E0F9D0E0B553CC3005177F30B9100C1251
:100A660007AC7F583004077F788003B90803120764
:100A7600AC3002057F2D0207AC7F202008F87F2BC3
:100A86002006F322920280CF286E756C6C29002D09
:100A960050434958D2011207713001F8C201785308
:100AA60030D50108F60208171207712403B40500B1
:100AB6004001E4900A959312079D743A12079DD25D
:070AC600037553040208FC54
:101C8B0010090B121CA8BF0D027F0A021BF5AF1D1A
:011C9B002226
:10103800FAE6FB0808E6F925F0F618E6CA3AF622B9
:10104800D083D082F8E4937012740193700DA3A337
:1010580093F8740193F5828883E47374029368604B
:06106800EFA3A3A380DF4B
:0A1CA8003098FDAF99C2987E00222B
:00000001FF
